{
  "contractName": "Multicall",
  "abi": [
    {
      "inputs": [
        {
          "components": [
            {
              "internalType": "address",
              "name": "target",
              "type": "address"
            },
            {
              "internalType": "bytes",
              "name": "callData",
              "type": "bytes"
            }
          ],
          "internalType": "struct Multicall.Call[]",
          "name": "calls",
          "type": "tuple[]"
        }
      ],
      "name": "aggregate",
      "outputs": [
        {
          "internalType": "uint256",
          "name": "blockNumber",
          "type": "uint256"
        },
        {
          "internalType": "bytes[]",
          "name": "returnData",
          "type": "bytes[]"
        }
      ],
      "stateMutability": "nonpayable",
      "type": "function"
    },
    {
      "inputs": [
        {
          "internalType": "address",
          "name": "addr",
          "type": "address"
        }
      ],
      "name": "getEthBalance",
      "outputs": [
        {
          "internalType": "uint256",
          "name": "balance",
          "type": "uint256"
        }
      ],
      "stateMutability": "view",
      "type": "function",
      "constant": true
    },
    {
      "inputs": [
        {
          "internalType": "uint256",
          "name": "blockNumber",
          "type": "uint256"
        }
      ],
      "name": "getBlockHash",
      "outputs": [
        {
          "internalType": "bytes32",
          "name": "blockHash",
          "type": "bytes32"
        }
      ],
      "stateMutability": "view",
      "type": "function",
      "constant": true
    },
    {
      "inputs": [],
      "name": "getLastBlockHash",
      "outputs": [
        {
          "internalType": "bytes32",
          "name": "blockHash",
          "type": "bytes32"
        }
      ],
      "stateMutability": "view",
      "type": "function",
      "constant": true
    },
    {
      "inputs": [],
      "name": "getCurrentBlockTimestamp",
      "outputs": [
        {
          "internalType": "uint256",
          "name": "timestamp",
          "type": "uint256"
        }
      ],
      "stateMutability": "view",
      "type": "function",
      "constant": true
    },
    {
      "inputs": [],
      "name": "getCurrentBlockDifficulty",
      "outputs": [
        {
          "internalType": "uint256",
          "name": "difficulty",
          "type": "uint256"
        }
      ],
      "stateMutability": "view",
      "type": "function",
      "constant": true
    },
    {
      "inputs": [],
      "name": "getCurrentBlockGasLimit",
      "outputs": [
        {
          "internalType": "uint256",
          "name": "gaslimit",
          "type": "uint256"
        }
      ],
      "stateMutability": "view",
      "type": "function",
      "constant": true
    },
    {
      "inputs": [],
      "name": "getCurrentBlockCoinbase",
      "outputs": [
        {
          "internalType": "address",
          "name": "coinbase",
          "type": "address"
        }
      ],
      "stateMutability": "view",
      "type": "function",
      "constant": true
    }
  ],
  "bytecode": "0x608060405234801561001057600080fd5b506108f6806100206000396000f3fe608060405234801561001057600080fd5b50600436106100885760003560e01c806372425d9d1161005b57806372425d9d1461012a57806386d516e814610148578063a8b0574e14610166578063ee82ac5e1461018457610088565b80630f28c97d1461008d578063252dba42146100ab57806327e86d6e146100dc5780634d2301cc146100fa575b600080fd5b6100956101b4565b6040516100a291906106bf565b60405180910390f35b6100c560048036038101906100c091906104e8565b6101bc565b6040516100d39291906106da565b60405180910390f35b6100e46102f2565b6040516100f191906106a4565b60405180910390f35b610114600480360381019061010f91906104bf565b6102fe565b60405161012191906106bf565b60405180910390f35b61013261031f565b60405161013f91906106bf565b60405180910390f35b610150610327565b60405161015d91906106bf565b60405180910390f35b61016e61032f565b60405161017b9190610689565b60405180910390f35b61019e60048036038101906101999190610529565b610337565b6040516101ab91906106a4565b60405180910390f35b600042905090565b60006060439150825167ffffffffffffffff811180156101db57600080fd5b5060405190808252806020026020018201604052801561020f57816020015b60608152602001906001900390816101fa5790505b50905060005b83518110156102ec5760008085838151811061022d57fe5b60200260200101516000015173ffffffffffffffffffffffffffffffffffffffff1686848151811061025b57fe5b6020026020010151602001516040516102749190610672565b6000604051808303816000865af19150503d80600081146102b1576040519150601f19603f3d011682016040523d82523d6000602084013e6102b6565b606091505b5091509150816102c557600080fd5b808484815181106102d257fe5b602002602001018190525050508080600101915050610215565b50915091565b60006001430340905090565b60008173ffffffffffffffffffffffffffffffffffffffff16319050919050565b600044905090565b600045905090565b600041905090565b600081409050919050565b60006103556103508461073b565b61070a565b9050808382526020820190508260005b85811015610395578135850161037b8882610446565b845260208401935060208301925050600181019050610365565b5050509392505050565b60006103b26103ad84610767565b61070a565b9050828152602081018484840111156103ca57600080fd5b6103d584828561083d565b509392505050565b6000813590506103ec81610892565b92915050565b600082601f83011261040357600080fd5b8135610413848260208601610342565b91505092915050565b600082601f83011261042d57600080fd5b813561043d84826020860161039f565b91505092915050565b60006040828403121561045857600080fd5b610462604061070a565b90506000610472848285016103dd565b600083015250602082013567ffffffffffffffff81111561049257600080fd5b61049e8482850161041c565b60208301525092915050565b6000813590506104b9816108a9565b92915050565b6000602082840312156104d157600080fd5b60006104df848285016103dd565b91505092915050565b6000602082840312156104fa57600080fd5b600082013567ffffffffffffffff81111561051457600080fd5b610520848285016103f2565b91505092915050565b60006020828403121561053b57600080fd5b6000610549848285016104aa565b91505092915050565b600061055e83836105f9565b905092915050565b61056f816107f7565b82525050565b6000610580826107a7565b61058a81856107ca565b93508360208202850161059c85610797565b8060005b858110156105d857848403895281516105b98582610552565b94506105c4836107bd565b925060208a019950506001810190506105a0565b50829750879550505050505092915050565b6105f381610809565b82525050565b6000610604826107b2565b61060e81856107db565b935061061e81856020860161084c565b61062781610881565b840191505092915050565b600061063d826107b2565b61064781856107ec565b935061065781856020860161084c565b80840191505092915050565b61066c81610833565b82525050565b600061067e8284610632565b915081905092915050565b600060208201905061069e6000830184610566565b92915050565b60006020820190506106b960008301846105ea565b92915050565b60006020820190506106d46000830184610663565b92915050565b60006040820190506106ef6000830185610663565b81810360208301526107018184610575565b90509392505050565b6000604051905081810181811067ffffffffffffffff821117156107315761073061087f565b5b8060405250919050565b600067ffffffffffffffff8211156107565761075561087f565b5b602082029050602081019050919050565b600067ffffffffffffffff8211156107825761078161087f565b5b601f19601f8301169050602081019050919050565b6000819050602082019050919050565b600081519050919050565b600081519050919050565b6000602082019050919050565b600082825260208201905092915050565b600082825260208201905092915050565b600081905092915050565b600061080282610813565b9050919050565b6000819050919050565b600073ffffffffffffffffffffffffffffffffffffffff82169050919050565b6000819050919050565b82818337600083830152505050565b60005b8381101561086a57808201518184015260208101905061084f565b83811115610879576000848401525b50505050565bfe5b6000601f19601f8301169050919050565b61089b816107f7565b81146108a657600080fd5b50565b6108b281610833565b81146108bd57600080fd5b5056fea26469706673582212207eea41b8768cf7847bf654b30a1e3fc82fb86bdc28c6321500d14a4a97794c4964736f6c63430007060033",
  "immutableReferences": {},
  "source": "pragma solidity >=0.5.0;\npragma experimental ABIEncoderV2;\n\n/// @title Multicall - Aggregate results from multiple read-only function calls\n/// @author Michael Elliot <mike@makerdao.com>\n/// @author Joshua Levine <joshua@makerdao.com>\n/// @author Nick Johnson <arachnid@notdot.net>\n\ncontract Multicall {\n    struct Call {\n        address target;\n        bytes callData;\n    }\n    function aggregate(Call[] memory calls) public returns (uint256 blockNumber, bytes[] memory returnData) {\n        blockNumber = block.number;\n        returnData = new bytes[](calls.length);\n        for(uint256 i = 0; i < calls.length; i++) {\n            (bool success, bytes memory ret) = calls[i].target.call(calls[i].callData);\n            require(success);\n            returnData[i] = ret;\n        }\n    }\n    // Helper functions\n    function getEthBalance(address addr) public view returns (uint256 balance) {\n        balance = addr.balance;\n    }\n    function getBlockHash(uint256 blockNumber) public view returns (bytes32 blockHash) {\n        blockHash = blockhash(blockNumber);\n    }\n    function getLastBlockHash() public view returns (bytes32 blockHash) {\n        blockHash = blockhash(block.number - 1);\n    }\n    function getCurrentBlockTimestamp() public view returns (uint256 timestamp) {\n        timestamp = block.timestamp;\n    }\n    function getCurrentBlockDifficulty() public view returns (uint256 difficulty) {\n        difficulty = block.difficulty;\n    }\n    function getCurrentBlockGasLimit() public view returns (uint256 gaslimit) {\n        gaslimit = block.gaslimit;\n    }\n    function getCurrentBlockCoinbase() public view returns (address coinbase) {\n        coinbase = block.coinbase;\n    }\n}\n",
  "sourcePath": "/home/jean/work/perso/dogecorn.farm/contracts/Multicall.sol",
  "compiler": {
    "name": "solc",
    "version": "0.7.6+commit.7338295f.Emscripten.clang"
  },
  "schemaVersion": "3.4.1",
  "updatedAt": "2021-05-29T12:52:01.708Z",
  "networkType": "ethereum",
  "devdoc": {
    "author": "Michael Elliot <mike@makerdao.com>Joshua Levine <joshua@makerdao.com>Nick Johnson <arachnid@notdot.net>",
    "kind": "dev",
    "methods": {},
    "title": "Multicall - Aggregate results from multiple read-only function calls",
    "version": 1
  },
  "userdoc": {
    "kind": "user",
    "methods": {},
    "version": 1
  }
}